:020000040800F2
:10000000E8070020C9010008D105000841050008E3
:10001000CD050008210400081B0C000800000000AA
:100020000000000000000000000000007107000850
:10003000250400080000000059060008BD0800085B
:10004000E3010008E3010008E3010008E301000800
:10005000E3010008E3010008E3010008E3010008F0
:10006000E3010008E3010008E3010008E3010008E0
:10007000E3010008E3010008E3010008E3010008D0
:10008000E3010008E3010008E3010008E3010008C0
:10009000E3010008E3010008E3010008E3010008B0
:1000A000E3010008E3010008E3010008E3010008A0
:1000B000E3010008E3010008E3010008E301000890
:1000C000E3010008E3010008E3010008E301000880
:1000D000E301000821090008E3010008E30100082A
:1000E000E3010008E3010008E301000800F002F862
:1000F00000F05AF80AA090E8000C82448344AAF168
:100100000107DA4501D100F04FF8AFF2090EBAE865
:100110000F0013F0010F18BFFB1A43F0010318473B
:10012000D80D0000F80D00000A444FF0000C10F844
:10013000013B13F0070408BF10F8014B1D1108BF65
:1001400010F8015B641E05D010F8016B641E01F805
:10015000016BF9D113F0080F1EBF10F8014BAD1C55
:100160000C1B09D16D1E58BF01F801CBFAD505E073
:1001700014F8016B01F8016B6D1EF9D59142D6D3CD
:10018000704700000023002400250026103A28BFF5
:1001900078C1FBD8520728BF30C148BF0B607047F9
:1001A0001FB51FBD10B510BD00F033F81146FFF7A5
:1001B000F7FF00F08CFD00F051F803B4FFF7F2FFF9
:1001C00003BC00F02CFD00000948804709480047A7
:1001D000FEE7FEE7FEE7FEE7FEE7FEE7FEE7FEE7F7
:1001E000FEE7FEE704480549054A064B7047000054
:1001F000C1080008ED000008E8010020E807002021
:10020000E8030020E80300207047704770477047FC
:100210007047754600F02CF8AE4605006946534617
:1002200020F00700854618B020B5FFF7DBFFBDE8DA
:1002300020404FF000064FF000074FF000084FF04D
:10024000000B21F00701AC46ACE8C009ACE8C009DE
:10025000ACE8C009ACE8C0098D46704710B504464B
:10026000AFF300802046BDE81040FFF7A6BF0000B6
:10027000004870478801002008B50121082000F0DF
:10028000FDF98320ADF8000010208DF80300032055
:100290008DF802006946064800F0C5F803210448BD
:1002A00000F04CF98021024800F048F908BD000038
:1002B000000C014010B53C48C07848B93A48407934
:1002C00030B93948807818B93748007900285ED0AD
:1002D0003548C07868B13548007850B100203349BE
:1002E00008701421324800F045FA032000F0E2FCC7
:1002F00005E02D48C07810B901202C4908702A4823
:10030000407968B12B48007850B100202949087025
:100310001421294800F02EFA032000F0CBFC05E060
:100320002148407910B90120224908701E48807880
:1003300068B12248007850B100202049087012218D
:100340001F4800F017FA032000F0B4FC05E016483F
:10035000807810B90120194908701348007968B1F4
:100360001848007850B1002016490870102116482E
:1003700000F000FA032000F09DFC05E00A48007937
:1003800010B901200F49087000F026F80AE000F0CB
:100390001DF80120054908700649087007490870D2
:1003A0000849087010BD00007C0100204C010020AD
:1003B0006D0000204D010020810000204E01002032
:1003C000950000204F010020A700002001200149D6
:1003D000086070479C8121420020014908607047F5
:1003E0009C81214210B500200B490860962000F046
:1003F0003BFC01200949C1F89C01962000F034FC27
:10040000002005490860962000F02EFC01200349D9
:10041000C1F89C0110BD00009C8121420080214256
:1004200000BFFEE770472DE9F04102460025002697
:10043000002000230024002791F803C00CF00F05D2
:1004400091F803C00CF0100CBCF1000F03D091F830
:1004500002C04CEA050591F800C0BCF1000F31D094
:10046000146800202BE04FF0010C0CFA00F3B1F8F7
:1004700000C00CEA03069E4220D183004FF00F0C0F
:100480000CFA03F7BC4305FA03FC4CEA040491F8A8
:1004900003C0BCF1280F06D14FF0010C0CFA00FC90
:1004A000C2F814C00AE091F803C0BCF1480F05D1AE
:1004B0004FF0010C0CFA00FCC2F810C0401C0828D8
:1004C000D1D31460B1F800C0BCF1FF0F34DD546823
:1004D00000202EE000F1080C4FF0010808FA0CF3A0
:1004E000B1F800C00CEA03069E4221D183004FF010
:1004F0000F0C0CFA03F7BC4305FA03FC4CEA0404A6
:1005000091F803C0BCF1280F05D100F1080C08FADE
:100510000CF8C2F8148091F803C0BCF1480F07D161
:1005200000F1080C4FF0010808FA0CF8C2F810802E
:10053000401C0828CED35460BDE8F081416170476B
:1005400000BFFEE700200349086001200249C1F80E
:1005500084017047808121420080214200200349AC
:10056000086001200249C1F884017047808121425E
:100570000080214210B513484078012809D10E218E
:10058000114800F0F7F8FFF721FF022000F092FB7E
:1005900016E00C484078022802D1FFF71DFF0FE05B
:1005A00008484078032809D1FFF716FF0E210648B6
:1005B00000F0E0F8022000F07DFB01E0FFF706FF0D
:1005C00010BD00007C010020B700002000BFFEE746
:1005D0007047000070B5002100230F22C47804B3D7
:1005E000154C246804F4E064C4F5E064210AC1F108
:1005F0000403CA40447804FA03F184781440214388
:1006000009010E4C0678A155047804F01F05012459
:10061000AC4005786D11AD0005F1E025C5F800414D
:1006200009E0047804F01F050124AC40044D06786D
:10063000761145F8264070BD0CED00E000E400E0C6
:1006400080E100E002490143024A11607047000066
:100650000000FA050CED00E07047000029B1064AE1
:10066000D2690243044BDA6104E0034AD26982434F
:10067000014BDA61704700000010024029B1064AC0
:1006800092690243044B9A6104E0034A92698243EF
:10069000014B9A61704700000010024030B5002104
:1006A0000022002400232D4D6D6805F00C0121B1BE
:1006B000042905D0082923D105E0294D056022E051
:1006C000274D05601FE0254D6D6805F47012234D20
:1006D0006D6805F48034022505EB92421CB9214D6A
:1006E000554305600BE01D4D6D6805F400351DB1E7
:1006F0001C4D5543056002E0194D5543056002E06D
:10070000174D056000BF00BF144D6D6805F0F00186
:100710000909154D6B5C0568DD4045600F4D6D683E
:1007200005F4E061090A104D6B5C4568DD408560A9
:100730000A4D6D6805F46051C90A0B4D6B5C456844
:10074000DD40C560054D6D6805F44041890B074DDE
:100750006B5CC568B5FBF3F5056130BD0010024068
:1007600000127A0000093D00680100207801002095
:100770007047000070B504460D46002611E000BF2A
:100780008021094800F078F90028F9D014F8011BFD
:10079000054800F03EFA8021034800F049F9701C3A
:1007A000C6B2AE42EBDB70BD0044004010B500F0B5
:1007B00001F810BD0CB5002001900090334800688E
:1007C00040F480303149086000BF3048006800F4D0
:1007D000003000900198401C0190009818B90198D1
:1007E000B0F5A06FF1D12948006800F4003010B1D5
:1007F0000120009001E0002000900098012843D1E2
:100800002348006840F0100021490860084600684D
:1008100020F0030008600846006840F0020008600D
:100820001A484068194948600846406848600846C8
:10083000406840F4806048600846406820F47C10BE
:1008400048600846406840F4E81048600846006880
:1008500040F08070086000BF0C48006800F0007035
:100860000028F9D00948406820F003000749486093
:100870000846406840F00200486000BF03484068F6
:1008800000F00C000828F9D10CBD00000010024057
:1008900000200240042808D14FF0E021096941F00E
:1008A00004014FF0E022116107E04FF0E0210969F7
:1008B00021F004014FF0E022116170477047000001
:1008C00010B51348006840F001001149086008465F
:1008D0004068104908400E494860084600680E49C3
:1008E00008400B4908600846006820F48020086032
:1008F0000846406820F4FE0048604FF41F008860FE
:10090000FFF754FF4FF000600449086010BD00007D
:10091000001002400000FFF8FFFFF6FE08ED00E0C7
:1009200010B5002440F22551084800F0B2F830B16B
:10093000064800F069F9C4B2204600F009F840F218
:100940002551024800F07DF810BD0000003801403C
:1009500000F0F00180291BD100F00F0119B900212E
:10096000324A517061E000F00F01012902D12F4A93
:1009700051705AE000F00F01022902D12B4A517048
:1009800053E000F00F0103294FD1284A51704CE089
:1009900000F0F00190290DD100F00F0119B90021EC
:1009A000224A117041E000F00F0101293DD11F4A98
:1009B00011703AE000F0F00110290AD100F00F01A7
:1009C00019B10121194AD1702FE00021174AD170C5
:1009D0002BE000F0F00120290AD100F00F0119B13D
:1009E0000121124A517120E00021104A51711CE08E
:1009F00000F0F00130290AD100F00F0119B10121F6
:100A00000A4A917011E00021084A91700DE000F04F
:100A1000F001402909D100F00F0119B10121034A69
:100A2000117102E00021014A117170477C01002020
:100A300001F40072B2F5007F00D100BFCA4302800A
:100A4000704710B50022002340F66A14A14200D17D
:100A500000BF0A1201249440A3B2DC43048010BDFD
:100A600021B1828942F40052828104E082894DF6EC
:100A7000FF731A408281704702460020B1F5007F63
:100A800000D100BF13880B400BB1012000E0002013
:100A9000704770B50246002400230025002040F670
:100AA0006A16B14200D100BFC1F3421501F01F0325
:100AB000012606FA03F3012D02D19689334006E0A0
:100AC000022D02D1168A334001E0968A33400C127F
:100AD000012606FA04F41688344013B10CB1012043
:100AE00000E0002070BDF0B503460024002600257C
:100AF000002040F66A17B94200D100BF1846C1F382
:100B0000421401F01F06012707FA06F5012C01D156
:100B10000C3004E0022C01D1103000E014301AB186
:100B200007682F43076002E00768AF430760F0BD26
:100B30002DE9F04786B005460E460024A24600BFC8
:100B4000A1460027B08900B100BF2F462C8A4CF681
:100B5000FF700440F08804432C82AC894EF6F310F9
:100B60000440B08831890843718908430443AC814B
:100B7000AC8A4FF6FF400440B0890443AC8201A820
:100B8000FFF78CFD1F48874202D1DDF810A001E07D
:100B9000DDF80CA0A88900F4004040B10AEBCA00BF
:100BA00000EB0A1031684900B0FBF1F807E00AEBEE
:100BB000CA0000EB0A1031688900B0FBF1F864202C
:100BC000B8FBF0F004012009642101FB1089A88919
:100BD00000F4004040B1322000EBC900B0FBF1F05E
:100BE00000F00700044308E0322000EB0910642104
:100BF000B0FBF1F000F00F0004432C8106B0BDE81B
:100C0000F08700000038014001468888C0F30800E2
:100C10007047C1F308028280704700BFFEE70146BB
:100C200000BF704710B56FF00400FFF733FE0A48AD
:100C300000680A49B0FBF1F00949087008460078DD
:100C400000EB4001C1EBC0104FF6FF7101EAC0009C
:100C50000449088010BD00005001002000127A00F5
:100C600064010020660100200146114A12884A43AF
:100C70004FF0E0235A6100229A611A46126942F04D
:100C800001021A6100BF4FF0E022106900F001027A
:100C90001AB100F48032002AF5D04FF0E022126938
:100CA00022F001024FF0E0231A6100229A6170479E
:100CB0006601002070B50446002505E0681C85B279
:100CC0004FF47A70FFF7D0FFA542F7DB70BDFFF756
:100CD000A9FF4FF4A060FFF7B5FCFFF7CDFA4FF482
:100CE000E13000F03DF84FF4165000F089F800F0C4
:100CF00007F804E000F0D0F86420FFF7B5FFF9E74B
:100D000010B5C820FFF7B0FF0B211148FFF732FDE7
:100D1000C820FFF7A9FF0A210E48FFF72BFDC820C6
:100D2000FFF7A2FF3C210C48FFF724FD0A20FFF744
:100D3000C1FF4FF49670FFF797FFFFF753FB0B21AE
:100D40000648FFF717FD0120FFF7B4FF10BD0000B4
:100D500062000020390000200F010020190000204F
:100D600010B586B00446012144F20400FFF786FC6A
:100D70004FF40070ADF8140003208DF81600182011
:100D80008DF8170005A91C48FFF74DFB4FF4806054
:100D9000ADF8140004208DF8170005A91648FFF7D8
:100DA00042FB25208DF8000000208DF801008DF811
:100DB000020001208DF803006846FFF70BFC019448
:100DC0000020ADF80800ADF80A00ADF80C00ADF851
:100DD00010000C20ADF80E0001A90848FFF7A8FE8E
:100DE000012240F225510548FFF77DFE012103480D
:100DF000FFF736FE06B010BD000801400038014084
:100E000010B586B0044601214804FFF727FC0121F4
:100E10000420FFF733FC0420ADF8140003208DF804
:100E2000160018208DF8170005A91948FFF7FBFADE
:100E30000820ADF8140004208DF8170005A9144807
:100E4000FFF7F1FA26208DF8000000208DF8010050
:100E500001208DF802008DF803006846FFF7BAFB09
:100E600001940020ADF80800ADF80A00ADF80C00C0
:100E7000ADF810000C20ADF80E0001A90548FFF7F1
:100E800057FE01210348FFF7EBFD06B010BD00003F
:100E9000000801400044004010B51348007888B1B4
:100EA0001248007858B1002010490870FFF74AFB3B
:100EB00018210F48FFF75EFC0320FFF7FBFEFFF74A
:100EC00059FB10E00948007858B90120074908701B
:100ED000FFF744FB18210748FFF74CFC0A20FFF7F7
:100EE000E9FEFFF7E7F910BD7C0100204B0100206F
:100EF000DD000020C5000020180F000800000020C1
:100F000088010000280100083C100008880100202A
:100F1000600600008401000812FD1C0202FD051B92
:100F200003FC051B04FB051B21DE05148877FD6807
:100F30000A0801015B7631365D820B15305D84FD58
:100F40002A070B5C325DB80A4C395DB31F1A6D2A53
:100F50004A99155D6D395DA80A6C315DA01F153188
:100F60005D9EFD7813110101C3C5B4B0D2BBD2D1CF
:100F7000B1BBB4F2BFAADD146BB6FE14198B181006
:100F80000F0101D1CCCEEDC5A8B6C8B9FDB8DF12AE
:100F9000180E0D0101BCECB2E2B5BDBBF0D1E68884
:100FA000100E0B0101B1A8BEAFCCE1CABEA7FD284F
:100FB00008150101D7D4B6AF12380CC4A3CABDD2EC
:100FC000D1BFAAC6F4CE188809BCE0BFD8B9A4D74F
:100FD000F71813DAFD101A170101BBB6D3ADC0B470
:100FE000B5BDB6FEC1E3BEC5CAB5D1E9CAD2ABFD37
:100FF0002826390121CFB5CDB3B3F5CABCBBAFD6D6
:10100000D0A3ACA3ACD4B8C4FAD3D0D2BBB8F6B09A
:10101000B2C8ABB5C4BCD2168BA3AC2816CDEAB30C
:10102000C9B81A01011184A24A04A80901020304E3
:0C10300006070809106914C50204060830
:04000005080001C925
:00000001FF
